{
  "_format": "hh-sol-artifact-1",
  "contractName": "Deposits",
  "sourceName": "contracts/Deposits.sol",
  "abi": [
    {
      "inputs": [
        {
          "internalType": "address",
          "name": "glmAddress",
          "type": "address"
        },
        {
          "internalType": "address",
          "name": "_auth",
          "type": "address"
        }
      ],
      "stateMutability": "nonpayable",
      "type": "constructor"
    },
    {
      "anonymous": false,
      "inputs": [
        {
          "indexed": false,
          "internalType": "uint256",
          "name": "depositBefore",
          "type": "uint256"
        },
        {
          "indexed": false,
          "internalType": "uint256",
          "name": "amount",
          "type": "uint256"
        },
        {
          "indexed": false,
          "internalType": "uint256",
          "name": "when",
          "type": "uint256"
        },
        {
          "indexed": false,
          "internalType": "address",
          "name": "user",
          "type": "address"
        }
      ],
      "name": "Locked",
      "type": "event"
    },
    {
      "anonymous": false,
      "inputs": [
        {
          "indexed": false,
          "internalType": "uint256",
          "name": "depositBefore",
          "type": "uint256"
        },
        {
          "indexed": false,
          "internalType": "uint256",
          "name": "amount",
          "type": "uint256"
        },
        {
          "indexed": false,
          "internalType": "uint256",
          "name": "when",
          "type": "uint256"
        },
        {
          "indexed": false,
          "internalType": "address",
          "name": "user",
          "type": "address"
        }
      ],
      "name": "Unlocked",
      "type": "event"
    },
    {
      "inputs": [],
      "name": "auth",
      "outputs": [
        {
          "internalType": "contract Auth",
          "name": "",
          "type": "address"
        }
      ],
      "stateMutability": "view",
      "type": "function"
    },
    {
      "inputs": [
        {
          "internalType": "address",
          "name": "",
          "type": "address"
        }
      ],
      "name": "deposits",
      "outputs": [
        {
          "internalType": "uint256",
          "name": "",
          "type": "uint256"
        }
      ],
      "stateMutability": "view",
      "type": "function"
    },
    {
      "inputs": [],
      "name": "glm",
      "outputs": [
        {
          "internalType": "contract ERC20",
          "name": "",
          "type": "address"
        }
      ],
      "stateMutability": "view",
      "type": "function"
    },
    {
      "inputs": [
        {
          "internalType": "uint256",
          "name": "amount",
          "type": "uint256"
        }
      ],
      "name": "lock",
      "outputs": [],
      "stateMutability": "nonpayable",
      "type": "function"
    },
    {
      "inputs": [
        {
          "internalType": "uint256",
          "name": "amount",
          "type": "uint256"
        }
      ],
      "name": "unlock",
      "outputs": [],
      "stateMutability": "nonpayable",
      "type": "function"
    }
  ],
  "bytecode": "0x60c06040523480156200001157600080fd5b5060405162000dd538038062000dd583398181016040528101906200003791906200026b565b80600073ffffffffffffffffffffffffffffffffffffffff168173ffffffffffffffffffffffffffffffffffffffff1614156040518060400160405280601a81526020017f484e3a436f6d6d6f6e2f696e76616c69642d617267756d656e7400000000000081525090620000e3576040517f08c379a0000000000000000000000000000000000000000000000000000000008152600401620000da91906200034c565b60405180910390fd5b508073ffffffffffffffffffffffffffffffffffffffff1660808173ffffffffffffffffffffffffffffffffffffffff168152505050600073ffffffffffffffffffffffffffffffffffffffff168273ffffffffffffffffffffffffffffffffffffffff1614156040518060400160405280601a81526020017f484e3a436f6d6d6f6e2f696e76616c69642d617267756d656e7400000000000081525090620001c4576040517f08c379a0000000000000000000000000000000000000000000000000000000008152600401620001bb91906200034c565b60405180910390fd5b508173ffffffffffffffffffffffffffffffffffffffff1660a08173ffffffffffffffffffffffffffffffffffffffff1681525050505062000370565b600080fd5b600073ffffffffffffffffffffffffffffffffffffffff82169050919050565b6000620002338262000206565b9050919050565b620002458162000226565b81146200025157600080fd5b50565b60008151905062000265816200023a565b92915050565b6000806040838503121562000285576200028462000201565b5b6000620002958582860162000254565b9250506020620002a88582860162000254565b9150509250929050565b600081519050919050565b600082825260208201905092915050565b60005b83811015620002ee578082015181840152602081019050620002d1565b60008484015250505050565b6000601f19601f8301169050919050565b60006200031882620002b2565b620003248185620002bd565b935062000336818560208601620002ce565b6200034181620002fa565b840191505092915050565b600060208201905081810360008301526200036881846200030b565b905092915050565b60805160a051610a31620003a46000396000818161020f015281816102f70152610429015260006105650152610a316000f3fe608060405234801561001057600080fd5b50600436106100575760003560e01c80636198e3391461005c57806386438ebd14610078578063dd46706414610096578063de9375f2146100b2578063fc7e286d146100d0575b600080fd5b610076600480360381019061007191906105da565b610100565b005b6100806102f5565b60405161008d9190610686565b60405180910390f35b6100b060048036038101906100ab91906105da565b610319565b005b6100ba610563565b6040516100c791906106c2565b60405180910390f35b6100ea60048036038101906100e5919061071b565b610587565b6040516100f79190610757565b60405180910390f35b60008060003373ffffffffffffffffffffffffffffffffffffffff1673ffffffffffffffffffffffffffffffffffffffff168152602001908152602001600020549050818110156040518060400160405280601e81526020017f484e3a4465706f736974732f6465706f7369742d69732d736d616c6c65720000815250906101be576040517f08c379a00000000000000000000000000000000000000000000000000000000081526004016101b59190610802565b60405180910390fd5b5081816101cb9190610853565b6000803373ffffffffffffffffffffffffffffffffffffffff1673ffffffffffffffffffffffffffffffffffffffff168152602001908152602001600020819055507f000000000000000000000000000000000000000000000000000000000000000073ffffffffffffffffffffffffffffffffffffffff1663a9059cbb33846040518363ffffffff1660e01b8152600401610268929190610896565b6020604051808303816000875af1158015610287573d6000803e3d6000fd5b505050506040513d601f19601f820116820180604052508101906102ab91906108f7565b6102b457600080fd5b7fc866d6212c58a2480a6da14f1bdbaae0c127cdc8296409157a23b968149066ce818342336040516102e99493929190610924565b60405180910390a15050565b7f000000000000000000000000000000000000000000000000000000000000000081565b60008114156040518060400160405280601a81526020017f484e3a436f6d6d6f6e2f696e76616c69642d617267756d656e7400000000000081525090610395576040517f08c379a000000000000000000000000000000000000000000000000000000000815260040161038c9190610802565b60405180910390fd5b5060008060003373ffffffffffffffffffffffffffffffffffffffff1673ffffffffffffffffffffffffffffffffffffffff16815260200190815260200160002054905081816103e59190610969565b6000803373ffffffffffffffffffffffffffffffffffffffff1673ffffffffffffffffffffffffffffffffffffffff168152602001908152602001600020819055507f000000000000000000000000000000000000000000000000000000000000000073ffffffffffffffffffffffffffffffffffffffff166323b872dd3330856040518463ffffffff1660e01b81526004016104849392919061099d565b6020604051808303816000875af11580156104a3573d6000803e3d6000fd5b505050506040513d601f19601f820116820180604052508101906104c791906108f7565b6040518060600160405280602781526020016109d56027913990610521576040517f08c379a00000000000000000000000000000000000000000000000000000000081526004016105189190610802565b60405180910390fd5b507f4c00281b0bce21cd7064204e92146d972c359c3743b9a503f438b4325efaaf14818342336040516105579493929190610924565b60405180910390a15050565b7f000000000000000000000000000000000000000000000000000000000000000081565b60006020528060005260406000206000915090505481565b600080fd5b6000819050919050565b6105b7816105a4565b81146105c257600080fd5b50565b6000813590506105d4816105ae565b92915050565b6000602082840312156105f0576105ef61059f565b5b60006105fe848285016105c5565b91505092915050565b600073ffffffffffffffffffffffffffffffffffffffff82169050919050565b6000819050919050565b600061064c61064761064284610607565b610627565b610607565b9050919050565b600061065e82610631565b9050919050565b600061067082610653565b9050919050565b61068081610665565b82525050565b600060208201905061069b6000830184610677565b92915050565b60006106ac82610653565b9050919050565b6106bc816106a1565b82525050565b60006020820190506106d760008301846106b3565b92915050565b60006106e882610607565b9050919050565b6106f8816106dd565b811461070357600080fd5b50565b600081359050610715816106ef565b92915050565b6000602082840312156107315761073061059f565b5b600061073f84828501610706565b91505092915050565b610751816105a4565b82525050565b600060208201905061076c6000830184610748565b92915050565b600081519050919050565b600082825260208201905092915050565b60005b838110156107ac578082015181840152602081019050610791565b60008484015250505050565b6000601f19601f8301169050919050565b60006107d482610772565b6107de818561077d565b93506107ee81856020860161078e565b6107f7816107b8565b840191505092915050565b6000602082019050818103600083015261081c81846107c9565b905092915050565b7f4e487b7100000000000000000000000000000000000000000000000000000000600052601160045260246000fd5b600061085e826105a4565b9150610869836105a4565b925082820390508181111561088157610880610824565b5b92915050565b610890816106dd565b82525050565b60006040820190506108ab6000830185610887565b6108b86020830184610748565b9392505050565b60008115159050919050565b6108d4816108bf565b81146108df57600080fd5b50565b6000815190506108f1816108cb565b92915050565b60006020828403121561090d5761090c61059f565b5b600061091b848285016108e2565b91505092915050565b60006080820190506109396000830187610748565b6109466020830186610748565b6109536040830185610748565b6109606060830184610887565b95945050505050565b6000610974826105a4565b915061097f836105a4565b925082820190508082111561099757610996610824565b5b92915050565b60006060820190506109b26000830186610887565b6109bf6020830185610887565b6109cc6040830184610748565b94935050505056fe484e3a4465706f736974732f63616e6e6f742d7472616e736665722d66726f6d2d73656e646572a264697066735822122096041d36600718f1169ef29f9439f90da234ee87cfd768a3143e60cecaf1e9c364736f6c63430008120033",
  "linkReferences": {},
  "deployedLinkReferences": {}
}