{
  "_format": "hh-sol-artifact-1",
  "contractName": "Epochs",
  "sourceName": "contracts/Epochs.sol",
  "abi": [
    {
      "inputs": [
        {
          "internalType": "uint256",
          "name": "_start",
          "type": "uint256"
        },
        {
          "internalType": "uint256",
          "name": "_epochDuration",
          "type": "uint256"
        },
        {
          "internalType": "uint256",
          "name": "_decisionWindow",
          "type": "uint256"
        },
        {
          "internalType": "address",
          "name": "_auth",
          "type": "address"
        }
      ],
      "stateMutability": "nonpayable",
      "type": "constructor"
    },
    {
      "inputs": [],
      "name": "auth",
      "outputs": [
        {
          "internalType": "contract Auth",
          "name": "",
          "type": "address"
        }
      ],
      "stateMutability": "view",
      "type": "function"
    },
    {
      "inputs": [
        {
          "internalType": "uint256",
          "name": "",
          "type": "uint256"
        }
      ],
      "name": "epochProps",
      "outputs": [
        {
          "internalType": "uint32",
          "name": "from",
          "type": "uint32"
        },
        {
          "internalType": "uint32",
          "name": "to",
          "type": "uint32"
        },
        {
          "internalType": "uint64",
          "name": "fromTs",
          "type": "uint64"
        },
        {
          "internalType": "uint64",
          "name": "duration",
          "type": "uint64"
        },
        {
          "internalType": "uint64",
          "name": "decisionWindow",
          "type": "uint64"
        }
      ],
      "stateMutability": "view",
      "type": "function"
    },
    {
      "inputs": [],
      "name": "epochPropsIndex",
      "outputs": [
        {
          "internalType": "uint256",
          "name": "",
          "type": "uint256"
        }
      ],
      "stateMutability": "view",
      "type": "function"
    },
    {
      "inputs": [],
      "name": "getCurrentEpoch",
      "outputs": [
        {
          "internalType": "uint256",
          "name": "",
          "type": "uint256"
        }
      ],
      "stateMutability": "view",
      "type": "function"
    },
    {
      "inputs": [],
      "name": "getCurrentEpochEnd",
      "outputs": [
        {
          "internalType": "uint256",
          "name": "",
          "type": "uint256"
        }
      ],
      "stateMutability": "view",
      "type": "function"
    },
    {
      "inputs": [],
      "name": "getCurrentEpochProps",
      "outputs": [
        {
          "components": [
            {
              "internalType": "uint32",
              "name": "from",
              "type": "uint32"
            },
            {
              "internalType": "uint32",
              "name": "to",
              "type": "uint32"
            },
            {
              "internalType": "uint64",
              "name": "fromTs",
              "type": "uint64"
            },
            {
              "internalType": "uint64",
              "name": "duration",
              "type": "uint64"
            },
            {
              "internalType": "uint64",
              "name": "decisionWindow",
              "type": "uint64"
            }
          ],
          "internalType": "struct Epochs.EpochProps",
          "name": "",
          "type": "tuple"
        }
      ],
      "stateMutability": "view",
      "type": "function"
    },
    {
      "inputs": [],
      "name": "getDecisionWindow",
      "outputs": [
        {
          "internalType": "uint256",
          "name": "",
          "type": "uint256"
        }
      ],
      "stateMutability": "view",
      "type": "function"
    },
    {
      "inputs": [],
      "name": "getEpochDuration",
      "outputs": [
        {
          "internalType": "uint256",
          "name": "",
          "type": "uint256"
        }
      ],
      "stateMutability": "view",
      "type": "function"
    },
    {
      "inputs": [],
      "name": "getFinalizedEpoch",
      "outputs": [
        {
          "internalType": "uint256",
          "name": "",
          "type": "uint256"
        }
      ],
      "stateMutability": "view",
      "type": "function"
    },
    {
      "inputs": [],
      "name": "getPendingEpoch",
      "outputs": [
        {
          "internalType": "uint256",
          "name": "",
          "type": "uint256"
        }
      ],
      "stateMutability": "view",
      "type": "function"
    },
    {
      "inputs": [],
      "name": "isDecisionWindowOpen",
      "outputs": [
        {
          "internalType": "bool",
          "name": "",
          "type": "bool"
        }
      ],
      "stateMutability": "view",
      "type": "function"
    },
    {
      "inputs": [],
      "name": "isStarted",
      "outputs": [
        {
          "internalType": "bool",
          "name": "",
          "type": "bool"
        }
      ],
      "stateMutability": "view",
      "type": "function"
    },
    {
      "inputs": [
        {
          "internalType": "uint256",
          "name": "_epochDuration",
          "type": "uint256"
        },
        {
          "internalType": "uint256",
          "name": "_decisionWindow",
          "type": "uint256"
        }
      ],
      "name": "setEpochProps",
      "outputs": [],
      "stateMutability": "nonpayable",
      "type": "function"
    },
    {
      "inputs": [],
      "name": "start",
      "outputs": [
        {
          "internalType": "uint256",
          "name": "",
          "type": "uint256"
        }
      ],
      "stateMutability": "view",
      "type": "function"
    }
  ],
  "bytecode": "0x60c06040523480156200001157600080fd5b506040516200186838038062001868833981810160405281019062000037919062000316565b80600073ffffffffffffffffffffffffffffffffffffffff168173ffffffffffffffffffffffffffffffffffffffff1614156040518060400160405280601a81526020017f484e3a436f6d6d6f6e2f696e76616c69642d617267756d656e7400000000000081525090620000e3576040517f08c379a0000000000000000000000000000000000000000000000000000000008152600401620000da919062000422565b60405180910390fd5b508073ffffffffffffffffffffffffffffffffffffffff1660808173ffffffffffffffffffffffffffffffffffffffff1681525050508360a081815250506040518060a00160405280600163ffffffff168152602001600063ffffffff16815260200160a05167ffffffffffffffff1681526020018467ffffffffffffffff1681526020018367ffffffffffffffff168152506001600080815260200190815260200160002060008201518160000160006101000a81548163ffffffff021916908363ffffffff16021790555060208201518160000160046101000a81548163ffffffff021916908363ffffffff16021790555060408201518160000160086101000a81548167ffffffffffffffff021916908367ffffffffffffffff16021790555060608201518160000160106101000a81548167ffffffffffffffff021916908367ffffffffffffffff16021790555060808201518160000160186101000a81548167ffffffffffffffff021916908367ffffffffffffffff1602179055509050505050505062000446565b600080fd5b6000819050919050565b6200028b8162000276565b81146200029757600080fd5b50565b600081519050620002ab8162000280565b92915050565b600073ffffffffffffffffffffffffffffffffffffffff82169050919050565b6000620002de82620002b1565b9050919050565b620002f081620002d1565b8114620002fc57600080fd5b50565b6000815190506200031081620002e5565b92915050565b6000806000806080858703121562000333576200033262000271565b5b600062000343878288016200029a565b945050602062000356878288016200029a565b935050604062000369878288016200029a565b92505060606200037c87828801620002ff565b91505092959194509250565b600081519050919050565b600082825260208201905092915050565b60005b83811015620003c4578082015181840152602081019050620003a7565b60008484015250505050565b6000601f19601f8301169050919050565b6000620003ee8262000388565b620003fa818562000393565b93506200040c818560208601620003a4565b6200041781620003d0565b840191505092915050565b600060208201905081810360008301526200043e8184620003e1565b905092915050565b60805160a0516113ee6200047a600039600081816103670152610a4a0152600081816104b00152610aeb01526113ee6000f3fe608060405234801561001057600080fd5b50600436106100ea5760003560e01c80639fa3df7a1161008c578063d6e9433b11610066578063d6e9433b1461022f578063de9375f21461024d578063f05f73171461026b578063ffb14a2a14610289576100ea565b80639fa3df7a146101d5578063b97dd9e2146101f3578063be9a655514610211576100ea565b80635d3ea8f1116100c85780635d3ea8f11461015f5780635d86abad1461017d5780636562320d1461019b5780639ae556ec146101b9576100ea565b806333d052ff146100ef578063412a329f1461010d578063544736e614610141575b600080fd5b6100f76102a7565b6040516101049190610e44565b60405180910390f35b61012760048036038101906101229190610e90565b6102d1565b604051610138959493929190610eff565b60405180910390f35b610149610363565b6040516101569190610f6d565b60405180910390f35b61016761038e565b6040516101749190610e44565b60405180910390f35b6101856103b0565b6040516101929190610e44565b60405180910390f35b6101a36103d2565b6040516101b09190610e44565b60405180910390f35b6101d360048036038101906101ce9190610f88565b6104ae565b005b6101dd6108ab565b6040516101ea9190610e44565b60405180910390f35b6101fb610946565b6040516102089190610e44565b60405180910390f35b610219610a48565b6040516102269190610e44565b60405180910390f35b610237610a6c565b6040516102449190610f6d565b60405180910390f35b610255610ae9565b6040516102629190611047565b60405180910390f35b610273610b0d565b6040516102809190610e44565b60405180910390f35b610291610b13565b60405161029e91906110e8565b60405180910390f35b6000806102b2610946565b905060006102be610b13565b90506102ca8282610d74565b9250505090565b60016020528060005260406000206000915090508060000160009054906101000a900463ffffffff16908060000160049054906101000a900463ffffffff16908060000160089054906101000a900467ffffffffffffffff16908060000160109054906101000a900467ffffffffffffffff16908060000160189054906101000a900467ffffffffffffffff16905085565b60007f0000000000000000000000000000000000000000000000000000000000000000421015905090565b600080610399610b13565b9050806060015167ffffffffffffffff1691505090565b6000806103bb610b13565b9050806080015167ffffffffffffffff1691505090565b6000806103dd610946565b905060006103e9610a6c565b905060018211801561040557506002821480156104035750805b155b6040518060400160405280601781526020017f484e3a45706f6368732f6e6f742d66696e616c697a65640000000000000000008152509061047c576040517f08c379a00000000000000000000000000000000000000000000000000000000081526004016104739190611193565b60405180910390fd5b5080156104995760028261049091906111e4565b925050506104ab565b6001826104a691906111e4565b925050505b90565b7f000000000000000000000000000000000000000000000000000000000000000073ffffffffffffffffffffffffffffffffffffffff16634783c35b6040518163ffffffff1660e01b8152600401602060405180830381865afa158015610519573d6000803e3d6000fd5b505050506040513d601f19601f8201168201806040525081019061053d9190611256565b73ffffffffffffffffffffffffffffffffffffffff163373ffffffffffffffffffffffffffffffffffffffff16146040518060400160405280601d81526020017f484e3a436f6d6d6f6e2f756e617574686f72697a65642d63616c6c6572000000815250906105e2576040517f08c379a00000000000000000000000000000000000000000000000000000000081526004016105d99190611193565b60405180910390fd5b50808210156040518060600160405280602e815260200161138b602e913990610641576040517f08c379a00000000000000000000000000000000000000000000000000000000081526004016106389190611193565b60405180910390fd5b50600061064c610b13565b90506000816020015163ffffffff160361082957600061066a610946565b905060006106788284610d74565b905081600160008054815260200190815260200160002060000160046101000a81548163ffffffff021916908363ffffffff1602179055506040518060a001604052806001846106c89190611283565b63ffffffff168152602001600063ffffffff1681526020018267ffffffffffffffff1681526020018667ffffffffffffffff1681526020018567ffffffffffffffff168152506001600060016000546107219190611283565b815260200190815260200160002060008201518160000160006101000a81548163ffffffff021916908363ffffffff16021790555060208201518160000160046101000a81548163ffffffff021916908363ffffffff16021790555060408201518160000160086101000a81548167ffffffffffffffff021916908367ffffffffffffffff16021790555060608201518160000160106101000a81548167ffffffffffffffff021916908367ffffffffffffffff16021790555060808201518160000160186101000a81548167ffffffffffffffff021916908367ffffffffffffffff160217905550905050600160005461081c9190611283565b60008190555050506108a6565b82600160008054815260200190815260200160002060000160106101000a81548167ffffffffffffffff021916908367ffffffffffffffff16021790555081600160008054815260200190815260200160002060000160186101000a81548167ffffffffffffffff021916908367ffffffffffffffff1602179055505b505050565b60006108b5610a6c565b6040518060400160405280601581526020017f484e3a45706f6368732f6e6f742d70656e64696e6700000000000000000000008152509061092c576040517f08c379a00000000000000000000000000000000000000000000000000000000081526004016109239190611193565b60405180910390fd5b506001610937610946565b61094191906111e4565b905090565b6000610950610363565b6040518060400160405280601981526020017f484e3a45706f6368732f6e6f742d737461727465642d79657400000000000000815250906109c7576040517f08c379a00000000000000000000000000000000000000000000000000000000081526004016109be9190611193565b60405180910390fd5b5060006109d2610b13565b90506000816020015163ffffffff16146109f957806020015163ffffffff16915050610a45565b806000015163ffffffff16816060015167ffffffffffffffff16826040015167ffffffffffffffff1642610a2d91906111e4565b610a3791906112e6565b610a419190611283565b9150505b90565b7f000000000000000000000000000000000000000000000000000000000000000081565b600080610a77610946565b905060018103610a8b576000915050610ae6565b6000610a95610b13565b90506000816060015167ffffffffffffffff16826040015167ffffffffffffffff1642610ac291906111e4565b610acc9190611317565b9050816080015167ffffffffffffffff1681111593505050505b90565b7f000000000000000000000000000000000000000000000000000000000000000081565b60005481565b610b1b610dd2565b42600160008054815260200190815260200160002060000160089054906101000a900467ffffffffffffffff1667ffffffffffffffff161115610c6d57600160006001600054610b6b91906111e4565b81526020019081526020016000206040518060a00160405290816000820160009054906101000a900463ffffffff1663ffffffff1663ffffffff1681526020016000820160049054906101000a900463ffffffff1663ffffffff1663ffffffff1681526020016000820160089054906101000a900467ffffffffffffffff1667ffffffffffffffff1667ffffffffffffffff1681526020016000820160109054906101000a900467ffffffffffffffff1667ffffffffffffffff1667ffffffffffffffff1681526020016000820160189054906101000a900467ffffffffffffffff1667ffffffffffffffff1667ffffffffffffffff16815250509050610d71565b60016000805481526020019081526020016000206040518060a00160405290816000820160009054906101000a900463ffffffff1663ffffffff1663ffffffff1681526020016000820160049054906101000a900463ffffffff1663ffffffff1663ffffffff1681526020016000820160089054906101000a900467ffffffffffffffff1667ffffffffffffffff1667ffffffffffffffff1681526020016000820160109054906101000a900467ffffffffffffffff1667ffffffffffffffff1667ffffffffffffffff1681526020016000820160189054906101000a900467ffffffffffffffff1667ffffffffffffffff1667ffffffffffffffff168152505090505b90565b6000816000015163ffffffff16836001610d8e9190611283565b610d9891906111e4565b826060015167ffffffffffffffff16610db19190611348565b826040015167ffffffffffffffff16610dca9190611283565b905092915050565b6040518060a00160405280600063ffffffff168152602001600063ffffffff168152602001600067ffffffffffffffff168152602001600067ffffffffffffffff168152602001600067ffffffffffffffff1681525090565b6000819050919050565b610e3e81610e2b565b82525050565b6000602082019050610e596000830184610e35565b92915050565b600080fd5b610e6d81610e2b565b8114610e7857600080fd5b50565b600081359050610e8a81610e64565b92915050565b600060208284031215610ea657610ea5610e5f565b5b6000610eb484828501610e7b565b91505092915050565b600063ffffffff82169050919050565b610ed681610ebd565b82525050565b600067ffffffffffffffff82169050919050565b610ef981610edc565b82525050565b600060a082019050610f146000830188610ecd565b610f216020830187610ecd565b610f2e6040830186610ef0565b610f3b6060830185610ef0565b610f486080830184610ef0565b9695505050505050565b60008115159050919050565b610f6781610f52565b82525050565b6000602082019050610f826000830184610f5e565b92915050565b60008060408385031215610f9f57610f9e610e5f565b5b6000610fad85828601610e7b565b9250506020610fbe85828601610e7b565b9150509250929050565b600073ffffffffffffffffffffffffffffffffffffffff82169050919050565b6000819050919050565b600061100d61100861100384610fc8565b610fe8565b610fc8565b9050919050565b600061101f82610ff2565b9050919050565b600061103182611014565b9050919050565b61104181611026565b82525050565b600060208201905061105c6000830184611038565b92915050565b61106b81610ebd565b82525050565b61107a81610edc565b82525050565b60a0820160008201516110966000850182611062565b5060208201516110a96020850182611062565b5060408201516110bc6040850182611071565b5060608201516110cf6060850182611071565b5060808201516110e26080850182611071565b50505050565b600060a0820190506110fd6000830184611080565b92915050565b600081519050919050565b600082825260208201905092915050565b60005b8381101561113d578082015181840152602081019050611122565b60008484015250505050565b6000601f19601f8301169050919050565b600061116582611103565b61116f818561110e565b935061117f81856020860161111f565b61118881611149565b840191505092915050565b600060208201905081810360008301526111ad818461115a565b905092915050565b7f4e487b7100000000000000000000000000000000000000000000000000000000600052601160045260246000fd5b60006111ef82610e2b565b91506111fa83610e2b565b9250828203905081811115611212576112116111b5565b5b92915050565b600061122382610fc8565b9050919050565b61123381611218565b811461123e57600080fd5b50565b6000815190506112508161122a565b92915050565b60006020828403121561126c5761126b610e5f565b5b600061127a84828501611241565b91505092915050565b600061128e82610e2b565b915061129983610e2b565b92508282019050808211156112b1576112b06111b5565b5b92915050565b7f4e487b7100000000000000000000000000000000000000000000000000000000600052601260045260246000fd5b60006112f182610e2b565b91506112fc83610e2b565b92508261130c5761130b6112b7565b5b828204905092915050565b600061132282610e2b565b915061132d83610e2b565b92508261133d5761133c6112b7565b5b828206905092915050565b600061135382610e2b565b915061135e83610e2b565b925082820261136c81610e2b565b91508282048414831517611383576113826111b5565b5b509291505056fe484e3a45706f6368732f6465636973696f6e2d77696e646f772d6269676765722d7468616e2d6475726174696f6ea2646970667358221220c4e1d3d97fb3b8ecb0b8f8e42fff63f4880e81aa7f7f293f26f779297875337a64736f6c63430008120033",
  "linkReferences": {},
  "deployedLinkReferences": {}
}