{
  "_format": "hh-sol-artifact-1",
  "contractName": "Proposals",
  "sourceName": "contracts/Proposals.sol",
  "abi": [
    {
      "inputs": [
        {
          "internalType": "string",
          "name": "_initCID",
          "type": "string"
        },
        {
          "internalType": "address[]",
          "name": "proposals",
          "type": "address[]"
        },
        {
          "internalType": "address",
          "name": "_auth",
          "type": "address"
        }
      ],
      "stateMutability": "nonpayable",
      "type": "constructor"
    },
    {
      "anonymous": false,
      "inputs": [
        {
          "indexed": false,
          "internalType": "address",
          "name": "epochs",
          "type": "address"
        }
      ],
      "name": "EpochsSet",
      "type": "event"
    },
    {
      "inputs": [],
      "name": "auth",
      "outputs": [
        {
          "internalType": "contract Auth",
          "name": "",
          "type": "address"
        }
      ],
      "stateMutability": "view",
      "type": "function"
    },
    {
      "inputs": [],
      "name": "cid",
      "outputs": [
        {
          "internalType": "string",
          "name": "",
          "type": "string"
        }
      ],
      "stateMutability": "view",
      "type": "function"
    },
    {
      "inputs": [],
      "name": "epochs",
      "outputs": [
        {
          "internalType": "contract IEpochs",
          "name": "",
          "type": "address"
        }
      ],
      "stateMutability": "view",
      "type": "function"
    },
    {
      "inputs": [
        {
          "internalType": "uint256",
          "name": "_epoch",
          "type": "uint256"
        }
      ],
      "name": "getProposalAddresses",
      "outputs": [
        {
          "internalType": "address[]",
          "name": "",
          "type": "address[]"
        }
      ],
      "stateMutability": "view",
      "type": "function"
    },
    {
      "inputs": [
        {
          "internalType": "string",
          "name": "_newCID",
          "type": "string"
        }
      ],
      "name": "setCID",
      "outputs": [],
      "stateMutability": "nonpayable",
      "type": "function"
    },
    {
      "inputs": [
        {
          "internalType": "address",
          "name": "_epochs",
          "type": "address"
        }
      ],
      "name": "setEpochs",
      "outputs": [],
      "stateMutability": "nonpayable",
      "type": "function"
    },
    {
      "inputs": [
        {
          "internalType": "uint256",
          "name": "_epoch",
          "type": "uint256"
        },
        {
          "internalType": "address[]",
          "name": "_proposalAddresses",
          "type": "address[]"
        }
      ],
      "name": "setProposalAddresses",
      "outputs": [],
      "stateMutability": "nonpayable",
      "type": "function"
    }
  ],
  "bytecode": "0x60a06040523480156200001157600080fd5b5060405162002198380380620021988339818101604052810190620000379190620005fb565b80600073ffffffffffffffffffffffffffffffffffffffff168173ffffffffffffffffffffffffffffffffffffffff1614156040518060400160405280601a81526020017f484e3a436f6d6d6f6e2f696e76616c69642d617267756d656e7400000000000081525090620000e3576040517f08c379a0000000000000000000000000000000000000000000000000000000008152600401620000da9190620006f2565b60405180910390fd5b508073ffffffffffffffffffffffffffffffffffffffff1660808173ffffffffffffffffffffffffffffffffffffffff16815250505082600090816200012a919062000956565b506200013c82620001ea60201b60201c565b6040518060400160405280601d81526020017f484e3a50726f706f73616c732f696e76616c69642d70726f706f73616c00000081525090620001b6576040517f08c379a0000000000000000000000000000000000000000000000000000000008152600401620001ad9190620006f2565b60405180910390fd5b5081600260008081526020019081526020016000209080519060200190620001e09291906200027a565b5050505062000ae8565b600080600090505b82518110156200026f57600073ffffffffffffffffffffffffffffffffffffffff168382815181106200022a576200022962000a3d565b5b602002602001015173ffffffffffffffffffffffffffffffffffffffff16036200025957600091505062000275565b8080620002669062000a9b565b915050620001f2565b50600190505b919050565b828054828255906000526020600020908101928215620002f6579160200282015b82811115620002f55782518260006101000a81548173ffffffffffffffffffffffffffffffffffffffff021916908373ffffffffffffffffffffffffffffffffffffffff160217905550916020019190600101906200029b565b5b50905062000305919062000309565b5090565b5b80821115620003245760008160009055506001016200030a565b5090565b6000604051905090565b600080fd5b600080fd5b600080fd5b600080fd5b6000601f19601f8301169050919050565b7f4e487b7100000000000000000000000000000000000000000000000000000000600052604160045260246000fd5b620003918262000346565b810181811067ffffffffffffffff82111715620003b357620003b262000357565b5b80604052505050565b6000620003c862000328565b9050620003d6828262000386565b919050565b600067ffffffffffffffff821115620003f957620003f862000357565b5b620004048262000346565b9050602081019050919050565b60005b838110156200043157808201518184015260208101905062000414565b60008484015250505050565b6000620004546200044e84620003db565b620003bc565b90508281526020810184848401111562000473576200047262000341565b5b6200048084828562000411565b509392505050565b600082601f830112620004a0576200049f6200033c565b5b8151620004b28482602086016200043d565b91505092915050565b600067ffffffffffffffff821115620004d957620004d862000357565b5b602082029050602081019050919050565b600080fd5b600073ffffffffffffffffffffffffffffffffffffffff82169050919050565b60006200051c82620004ef565b9050919050565b6200052e816200050f565b81146200053a57600080fd5b50565b6000815190506200054e8162000523565b92915050565b60006200056b6200056584620004bb565b620003bc565b90508083825260208201905060208402830185811115620005915762000590620004ea565b5b835b81811015620005be5780620005a988826200053d565b84526020840193505060208101905062000593565b5050509392505050565b600082601f830112620005e057620005df6200033c565b5b8151620005f284826020860162000554565b91505092915050565b60008060006060848603121562000617576200061662000332565b5b600084015167ffffffffffffffff81111562000638576200063762000337565b5b620006468682870162000488565b935050602084015167ffffffffffffffff8111156200066a576200066962000337565b5b6200067886828701620005c8565b92505060406200068b868287016200053d565b9150509250925092565b600081519050919050565b600082825260208201905092915050565b6000620006be8262000695565b620006ca8185620006a0565b9350620006dc81856020860162000411565b620006e78162000346565b840191505092915050565b600060208201905081810360008301526200070e8184620006b1565b905092915050565b7f4e487b7100000000000000000000000000000000000000000000000000000000600052602260045260246000fd5b600060028204905060018216806200075e57607f821691505b60208210810362000774576200077362000716565b5b50919050565b60008190508160005260206000209050919050565b60006020601f8301049050919050565b600082821b905092915050565b600060088302620007de7fffffffffffffffffffffffffffffffffffffffffffffffffffffffffffffffff826200079f565b620007ea86836200079f565b95508019841693508086168417925050509392505050565b6000819050919050565b6000819050919050565b600062000837620008316200082b8462000802565b6200080c565b62000802565b9050919050565b6000819050919050565b620008538362000816565b6200086b62000862826200083e565b848454620007ac565b825550505050565b600090565b6200088262000873565b6200088f81848462000848565b505050565b5b81811015620008b757620008ab60008262000878565b60018101905062000895565b5050565b601f8211156200090657620008d0816200077a565b620008db846200078f565b81016020851015620008eb578190505b62000903620008fa856200078f565b83018262000894565b50505b505050565b600082821c905092915050565b60006200092b600019846008026200090b565b1980831691505092915050565b600062000946838362000918565b9150826002028217905092915050565b620009618262000695565b67ffffffffffffffff8111156200097d576200097c62000357565b5b62000989825462000745565b62000996828285620008bb565b600060209050601f831160018114620009ce5760008415620009b9578287015190505b620009c5858262000938565b86555062000a35565b601f198416620009de866200077a565b60005b8281101562000a0857848901518255600182019150602085019450602081019050620009e1565b8683101562000a28578489015162000a24601f89168262000918565b8355505b6001600288020188555050505b505050505050565b7f4e487b7100000000000000000000000000000000000000000000000000000000600052603260045260246000fd5b7f4e487b7100000000000000000000000000000000000000000000000000000000600052601160045260246000fd5b600062000aa88262000802565b91507fffffffffffffffffffffffffffffffffffffffffffffffffffffffffffffffff820362000add5762000adc62000a6c565b5b600182019050919050565b60805161167f62000b1960003960008181610162015281816104ed015281816107d80152610920015261167f6000f3fe608060405234801561001057600080fd5b506004361061007d5760003560e01c8063aa3ec0a91161005b578063aa3ec0a9146100d8578063c3d6ee7f146100f6578063de9375f214610112578063dfc30ae7146101305761007d565b80634b81cb781461008257806358152d071461009e57806397b400e1146100bc575b600080fd5b61009c60048036038101906100979190610cba565b610160565b005b6100a66104c5565b6040516100b39190610d99565b60405180910390f35b6100d660048036038101906100d19190610df2565b6104eb565b005b6100e0610748565b6040516100ed9190610eaf565b60405180910390f35b610110600480360381019061010b9190611001565b6107d6565b005b61011a61091e565b604051610127919061106b565b60405180910390f35b61014a60048036038101906101459190611086565b610942565b6040516101579190611171565b60405180910390f35b7f000000000000000000000000000000000000000000000000000000000000000073ffffffffffffffffffffffffffffffffffffffff16634783c35b6040518163ffffffff1660e01b8152600401602060405180830381865afa1580156101cb573d6000803e3d6000fd5b505050506040513d601f19601f820116820180604052508101906101ef91906111a8565b73ffffffffffffffffffffffffffffffffffffffff163373ffffffffffffffffffffffffffffffffffffffff16146040518060400160405280601d81526020017f484e3a436f6d6d6f6e2f756e617574686f72697a65642d63616c6c657200000081525090610294576040517f08c379a000000000000000000000000000000000000000000000000000000000815260040161028b9190610eaf565b60405180910390fd5b50600073ffffffffffffffffffffffffffffffffffffffff16600160009054906101000a900473ffffffffffffffffffffffffffffffffffffffff1673ffffffffffffffffffffffffffffffffffffffff16146103db57600160009054906101000a900473ffffffffffffffffffffffffffffffffffffffff1673ffffffffffffffffffffffffffffffffffffffff1663b97dd9e26040518163ffffffff1660e01b8152600401602060405180830381865afa158015610358573d6000803e3d6000fd5b505050506040513d601f19601f8201168201806040525081019061037c91906111ea565b83101560405180606001604052806036815260200161161460369139906103d9576040517f08c379a00000000000000000000000000000000000000000000000000000000081526004016103d09190610eaf565b60405180910390fd5b505b610425828280806020026020016040519081016040528093929190818152602001838360200280828437600081840152601f19601f82011690508083019250505050505050610ac7565b6040518060400160405280601d81526020017f484e3a50726f706f73616c732f696e76616c69642d70726f706f73616c0000008152509061049c576040517f08c379a00000000000000000000000000000000000000000000000000000000081526004016104939190610eaf565b60405180910390fd5b5081816002600086815260200190815260200160002091906104bf929190610b4e565b50505050565b600160009054906101000a900473ffffffffffffffffffffffffffffffffffffffff1681565b7f000000000000000000000000000000000000000000000000000000000000000073ffffffffffffffffffffffffffffffffffffffff16634783c35b6040518163ffffffff1660e01b8152600401602060405180830381865afa158015610556573d6000803e3d6000fd5b505050506040513d601f19601f8201168201806040525081019061057a91906111a8565b73ffffffffffffffffffffffffffffffffffffffff163373ffffffffffffffffffffffffffffffffffffffff16146040518060400160405280601d81526020017f484e3a436f6d6d6f6e2f756e617574686f72697a65642d63616c6c65720000008152509061061f576040517f08c379a00000000000000000000000000000000000000000000000000000000081526004016106169190610eaf565b60405180910390fd5b50600073ffffffffffffffffffffffffffffffffffffffff16600160009054906101000a900473ffffffffffffffffffffffffffffffffffffffff1673ffffffffffffffffffffffffffffffffffffffff16146040518060600160405280602481526020016115f060249139906106cc576040517f08c379a00000000000000000000000000000000000000000000000000000000081526004016106c39190610eaf565b60405180910390fd5b5080600160006101000a81548173ffffffffffffffffffffffffffffffffffffffff021916908373ffffffffffffffffffffffffffffffffffffffff1602179055507f033bf778932c7071984f1a2b7fc52abfbd7a4efedfcb983e50cf2ee4d35c276d8160405161073d9190611226565b60405180910390a150565b6000805461075590611270565b80601f016020809104026020016040519081016040528092919081815260200182805461078190611270565b80156107ce5780601f106107a3576101008083540402835291602001916107ce565b820191906000526020600020905b8154815290600101906020018083116107b157829003601f168201915b505050505081565b7f000000000000000000000000000000000000000000000000000000000000000073ffffffffffffffffffffffffffffffffffffffff16634783c35b6040518163ffffffff1660e01b8152600401602060405180830381865afa158015610841573d6000803e3d6000fd5b505050506040513d601f19601f8201168201806040525081019061086591906111a8565b73ffffffffffffffffffffffffffffffffffffffff163373ffffffffffffffffffffffffffffffffffffffff16146040518060400160405280601d81526020017f484e3a436f6d6d6f6e2f756e617574686f72697a65642d63616c6c65720000008152509061090a576040517f08c379a00000000000000000000000000000000000000000000000000000000081526004016109019190610eaf565b60405180910390fd5b50806000908161091a9190611443565b5050565b7f000000000000000000000000000000000000000000000000000000000000000081565b606060008290505b6000811115610a2657600060026000838152602001908152602001600020805490501115610a125760026000828152602001908152602001600020805480602002602001604051908101604052809291908181526020018280548015610a0557602002820191906000526020600020905b8160009054906101000a900473ffffffffffffffffffffffffffffffffffffffff1673ffffffffffffffffffffffffffffffffffffffff16815260200190600101908083116109bb575b5050505050915050610ac2565b600181610a1f9190611544565b905061094a565b5060026000808152602001908152602001600020805480602002602001604051908101604052809291908181526020018280548015610aba57602002820191906000526020600020905b8160009054906101000a900473ffffffffffffffffffffffffffffffffffffffff1673ffffffffffffffffffffffffffffffffffffffff1681526020019060010190808311610a70575b505050505090505b919050565b600080600090505b8251811015610b4357600073ffffffffffffffffffffffffffffffffffffffff16838281518110610b0357610b02611578565b5b602002602001015173ffffffffffffffffffffffffffffffffffffffff1603610b30576000915050610b49565b8080610b3b906115a7565b915050610acf565b50600190505b919050565b828054828255906000526020600020908101928215610bdd579160200282015b82811115610bdc57823573ffffffffffffffffffffffffffffffffffffffff168260006101000a81548173ffffffffffffffffffffffffffffffffffffffff021916908373ffffffffffffffffffffffffffffffffffffffff16021790555091602001919060010190610b6e565b5b509050610bea9190610bee565b5090565b5b80821115610c07576000816000905550600101610bef565b5090565b6000604051905090565b600080fd5b600080fd5b6000819050919050565b610c3281610c1f565b8114610c3d57600080fd5b50565b600081359050610c4f81610c29565b92915050565b600080fd5b600080fd5b600080fd5b60008083601f840112610c7a57610c79610c55565b5b8235905067ffffffffffffffff811115610c9757610c96610c5a565b5b602083019150836020820283011115610cb357610cb2610c5f565b5b9250929050565b600080600060408486031215610cd357610cd2610c15565b5b6000610ce186828701610c40565b935050602084013567ffffffffffffffff811115610d0257610d01610c1a565b5b610d0e86828701610c64565b92509250509250925092565b600073ffffffffffffffffffffffffffffffffffffffff82169050919050565b6000819050919050565b6000610d5f610d5a610d5584610d1a565b610d3a565b610d1a565b9050919050565b6000610d7182610d44565b9050919050565b6000610d8382610d66565b9050919050565b610d9381610d78565b82525050565b6000602082019050610dae6000830184610d8a565b92915050565b6000610dbf82610d1a565b9050919050565b610dcf81610db4565b8114610dda57600080fd5b50565b600081359050610dec81610dc6565b92915050565b600060208284031215610e0857610e07610c15565b5b6000610e1684828501610ddd565b91505092915050565b600081519050919050565b600082825260208201905092915050565b60005b83811015610e59578082015181840152602081019050610e3e565b60008484015250505050565b6000601f19601f8301169050919050565b6000610e8182610e1f565b610e8b8185610e2a565b9350610e9b818560208601610e3b565b610ea481610e65565b840191505092915050565b60006020820190508181036000830152610ec98184610e76565b905092915050565b600080fd5b7f4e487b7100000000000000000000000000000000000000000000000000000000600052604160045260246000fd5b610f0e82610e65565b810181811067ffffffffffffffff82111715610f2d57610f2c610ed6565b5b80604052505050565b6000610f40610c0b565b9050610f4c8282610f05565b919050565b600067ffffffffffffffff821115610f6c57610f6b610ed6565b5b610f7582610e65565b9050602081019050919050565b82818337600083830152505050565b6000610fa4610f9f84610f51565b610f36565b905082815260208101848484011115610fc057610fbf610ed1565b5b610fcb848285610f82565b509392505050565b600082601f830112610fe857610fe7610c55565b5b8135610ff8848260208601610f91565b91505092915050565b60006020828403121561101757611016610c15565b5b600082013567ffffffffffffffff81111561103557611034610c1a565b5b61104184828501610fd3565b91505092915050565b600061105582610d66565b9050919050565b6110658161104a565b82525050565b6000602082019050611080600083018461105c565b92915050565b60006020828403121561109c5761109b610c15565b5b60006110aa84828501610c40565b91505092915050565b600081519050919050565b600082825260208201905092915050565b6000819050602082019050919050565b6110e881610db4565b82525050565b60006110fa83836110df565b60208301905092915050565b6000602082019050919050565b600061111e826110b3565b61112881856110be565b9350611133836110cf565b8060005b8381101561116457815161114b88826110ee565b975061115683611106565b925050600181019050611137565b5085935050505092915050565b6000602082019050818103600083015261118b8184611113565b905092915050565b6000815190506111a281610dc6565b92915050565b6000602082840312156111be576111bd610c15565b5b60006111cc84828501611193565b91505092915050565b6000815190506111e481610c29565b92915050565b600060208284031215611200576111ff610c15565b5b600061120e848285016111d5565b91505092915050565b61122081610db4565b82525050565b600060208201905061123b6000830184611217565b92915050565b7f4e487b7100000000000000000000000000000000000000000000000000000000600052602260045260246000fd5b6000600282049050600182168061128857607f821691505b60208210810361129b5761129a611241565b5b50919050565b60008190508160005260206000209050919050565b60006020601f8301049050919050565b600082821b905092915050565b6000600883026113037fffffffffffffffffffffffffffffffffffffffffffffffffffffffffffffffff826112c6565b61130d86836112c6565b95508019841693508086168417925050509392505050565b600061134061133b61133684610c1f565b610d3a565b610c1f565b9050919050565b6000819050919050565b61135a83611325565b61136e61136682611347565b8484546112d3565b825550505050565b600090565b611383611376565b61138e818484611351565b505050565b5b818110156113b2576113a760008261137b565b600181019050611394565b5050565b601f8211156113f7576113c8816112a1565b6113d1846112b6565b810160208510156113e0578190505b6113f46113ec856112b6565b830182611393565b50505b505050565b600082821c905092915050565b600061141a600019846008026113fc565b1980831691505092915050565b60006114338383611409565b9150826002028217905092915050565b61144c82610e1f565b67ffffffffffffffff81111561146557611464610ed6565b5b61146f8254611270565b61147a8282856113b6565b600060209050601f8311600181146114ad576000841561149b578287015190505b6114a58582611427565b86555061150d565b601f1984166114bb866112a1565b60005b828110156114e3578489015182556001820191506020850194506020810190506114be565b8683101561150057848901516114fc601f891682611409565b8355505b6001600288020188555050505b505050505050565b7f4e487b7100000000000000000000000000000000000000000000000000000000600052601160045260246000fd5b600061154f82610c1f565b915061155a83610c1f565b925082820390508181111561157257611571611515565b5b92915050565b7f4e487b7100000000000000000000000000000000000000000000000000000000600052603260045260246000fd5b60006115b282610c1f565b91507fffffffffffffffffffffffffffffffffffffffffffffffffffffffffffffffff82036115e4576115e3611515565b5b60018201905091905056fe484e3a50726f706f73616c732f63616e6e6f742d7365742d65706f6368732d7477696365484e3a50726f706f73616c732f6f6e6c792d6675747572652d70726f706f73616c732d6368616e67696e672d69732d616c6c6f776564a2646970667358221220a60578b15cdd0e4e8532d43cea4af058c3eaedb6ec076130ac5eede6bf95557d64736f6c63430008120033",
  "linkReferences": {},
  "deployedLinkReferences": {}
}