{
  "_format": "hh-sol-artifact-1",
  "contractName": "Vault",
  "sourceName": "contracts/Vault.sol",
  "abi": [
    {
      "inputs": [
        {
          "internalType": "address",
          "name": "_auth",
          "type": "address"
        }
      ],
      "stateMutability": "nonpayable",
      "type": "constructor"
    },
    {
      "anonymous": false,
      "inputs": [
        {
          "indexed": false,
          "internalType": "address",
          "name": "user",
          "type": "address"
        },
        {
          "indexed": false,
          "internalType": "uint256",
          "name": "amount",
          "type": "uint256"
        }
      ],
      "name": "EmergencyWithdrawn",
      "type": "event"
    },
    {
      "anonymous": false,
      "inputs": [
        {
          "indexed": false,
          "internalType": "uint256",
          "name": "epoch",
          "type": "uint256"
        },
        {
          "indexed": false,
          "internalType": "bytes32",
          "name": "root",
          "type": "bytes32"
        }
      ],
      "name": "MerkleRootSet",
      "type": "event"
    },
    {
      "anonymous": false,
      "inputs": [
        {
          "indexed": false,
          "internalType": "address",
          "name": "user",
          "type": "address"
        },
        {
          "indexed": false,
          "internalType": "uint256",
          "name": "amount",
          "type": "uint256"
        },
        {
          "indexed": false,
          "internalType": "uint256",
          "name": "epoch",
          "type": "uint256"
        }
      ],
      "name": "Withdrawn",
      "type": "event"
    },
    {
      "inputs": [],
      "name": "auth",
      "outputs": [
        {
          "internalType": "contract Auth",
          "name": "",
          "type": "address"
        }
      ],
      "stateMutability": "view",
      "type": "function"
    },
    {
      "inputs": [
        {
          "components": [
            {
              "internalType": "uint256",
              "name": "epoch",
              "type": "uint256"
            },
            {
              "internalType": "uint256",
              "name": "amount",
              "type": "uint256"
            },
            {
              "internalType": "bytes32[]",
              "name": "proof",
              "type": "bytes32[]"
            }
          ],
          "internalType": "struct Vault.WithdrawPayload[]",
          "name": "payloads",
          "type": "tuple[]"
        }
      ],
      "name": "batchWithdraw",
      "outputs": [],
      "stateMutability": "nonpayable",
      "type": "function"
    },
    {
      "inputs": [
        {
          "internalType": "uint256",
          "name": "amount",
          "type": "uint256"
        }
      ],
      "name": "emergencyWithdraw",
      "outputs": [],
      "stateMutability": "nonpayable",
      "type": "function"
    },
    {
      "inputs": [
        {
          "internalType": "address",
          "name": "",
          "type": "address"
        }
      ],
      "name": "lastClaimedEpoch",
      "outputs": [
        {
          "internalType": "uint256",
          "name": "",
          "type": "uint256"
        }
      ],
      "stateMutability": "view",
      "type": "function"
    },
    {
      "inputs": [
        {
          "internalType": "uint256",
          "name": "",
          "type": "uint256"
        }
      ],
      "name": "merkleRoots",
      "outputs": [
        {
          "internalType": "bytes32",
          "name": "",
          "type": "bytes32"
        }
      ],
      "stateMutability": "view",
      "type": "function"
    },
    {
      "inputs": [
        {
          "internalType": "uint256",
          "name": "epoch",
          "type": "uint256"
        },
        {
          "internalType": "bytes32",
          "name": "root",
          "type": "bytes32"
        }
      ],
      "name": "setMerkleRoot",
      "outputs": [],
      "stateMutability": "nonpayable",
      "type": "function"
    },
    {
      "inputs": [
        {
          "internalType": "bytes32[]",
          "name": "proof",
          "type": "bytes32[]"
        },
        {
          "internalType": "bytes32",
          "name": "root",
          "type": "bytes32"
        },
        {
          "internalType": "bytes32",
          "name": "leaf",
          "type": "bytes32"
        }
      ],
      "name": "verify",
      "outputs": [
        {
          "internalType": "bool",
          "name": "",
          "type": "bool"
        }
      ],
      "stateMutability": "pure",
      "type": "function"
    },
    {
      "stateMutability": "payable",
      "type": "receive"
    }
  ],
  "bytecode": "0x60a06040523480156200001157600080fd5b50604051620018cd380380620018cd83398181016040528101906200003791906200018a565b80600073ffffffffffffffffffffffffffffffffffffffff168173ffffffffffffffffffffffffffffffffffffffff1614156040518060400160405280601a81526020017f484e3a436f6d6d6f6e2f696e76616c69642d617267756d656e7400000000000081525090620000e3576040517f08c379a0000000000000000000000000000000000000000000000000000000008152600401620000da919062000256565b60405180910390fd5b508073ffffffffffffffffffffffffffffffffffffffff1660808173ffffffffffffffffffffffffffffffffffffffff168152505050506200027a565b600080fd5b600073ffffffffffffffffffffffffffffffffffffffff82169050919050565b6000620001528262000125565b9050919050565b620001648162000145565b81146200017057600080fd5b50565b600081519050620001848162000159565b92915050565b600060208284031215620001a357620001a262000120565b5b6000620001b38482850162000173565b91505092915050565b600081519050919050565b600082825260208201905092915050565b60005b83811015620001f8578082015181840152602081019050620001db565b60008484015250505050565b6000601f19601f8301169050919050565b60006200022282620001bc565b6200022e8185620001c7565b935062000240818560208601620001d8565b6200024b8162000204565b840191505092915050565b6000602082019050818103600083015262000272818462000215565b905092915050565b608051611622620002ab600039600081816101df0152818161047701528181610c100152610c4e01526116226000f3fe6080604052600436106100745760003560e01c806371c5ecb11161004e57806371c5ecb11461010f578063d3ed47de1461014c578063de9375f214610175578063f41c33e9146101a05761007b565b806318712c21146100805780635312ea8e146100a95780635a9a49c7146100d25761007b565b3661007b57005b600080fd5b34801561008c57600080fd5b506100a760048036038101906100a29190610e0f565b6101dd565b005b3480156100b557600080fd5b506100d060048036038101906100cb9190610e4f565b610475565b005b3480156100de57600080fd5b506100f960048036038101906100f49190610fd5565b6106d9565b604051610106919061105f565b60405180910390f35b34801561011b57600080fd5b5061013660048036038101906101319190610e4f565b6106ef565b6040516101439190611089565b60405180910390f35b34801561015857600080fd5b50610173600480360381019061016e91906110ff565b610707565b005b34801561018157600080fd5b5061018a610c0e565b60405161019791906111cb565b60405180910390f35b3480156101ac57600080fd5b506101c760048036038101906101c29190611224565b610c32565b6040516101d49190611260565b60405180910390f35b7f000000000000000000000000000000000000000000000000000000000000000073ffffffffffffffffffffffffffffffffffffffff16634783c35b6040518163ffffffff1660e01b8152600401602060405180830381865afa158015610248573d6000803e3d6000fd5b505050506040513d601f19601f8201168201806040525081019061026c9190611290565b73ffffffffffffffffffffffffffffffffffffffff163373ffffffffffffffffffffffffffffffffffffffff16146040518060400160405280601d81526020017f484e3a436f6d6d6f6e2f756e617574686f72697a65642d63616c6c657200000081525090610311576040517f08c379a0000000000000000000000000000000000000000000000000000000008152600401610308919061133c565b60405180910390fd5b506000801b8114156040518060400160405280601c81526020017f484e3a5661756c742f696e76616c69642d6d65726b6c652d726f6f740000000081525090610390576040517f08c379a0000000000000000000000000000000000000000000000000000000008152600401610387919061133c565b60405180910390fd5b506000801b60008084815260200190815260200160002054146040518060400160405280602081526020017f484e3a5661756c742f6d65726b6c652d726f6f742d616c72656164792d73657481525090610420576040517f08c379a0000000000000000000000000000000000000000000000000000000008152600401610417919061133c565b60405180910390fd5b5080600080848152602001908152602001600020819055507fb04b7d6145a7588fdcf339a22877d5965f861c171204fc37688058c5f6c06d3b828260405161046992919061135e565b60405180910390a15050565b7f000000000000000000000000000000000000000000000000000000000000000073ffffffffffffffffffffffffffffffffffffffff16634783c35b6040518163ffffffff1660e01b8152600401602060405180830381865afa1580156104e0573d6000803e3d6000fd5b505050506040513d601f19601f820116820180604052508101906105049190611290565b73ffffffffffffffffffffffffffffffffffffffff163373ffffffffffffffffffffffffffffffffffffffff16146040518060400160405280601d81526020017f484e3a436f6d6d6f6e2f756e617574686f72697a65642d63616c6c6572000000815250906105a9576040517f08c379a00000000000000000000000000000000000000000000000000000000081526004016105a0919061133c565b60405180910390fd5b5060006105b4610c4a565b905060003373ffffffffffffffffffffffffffffffffffffffff16836040516105dc906113b8565b60006040518083038185875af1925050503d8060008114610619576040519150601f19603f3d011682016040523d82523d6000602084013e61061e565b606091505b50509050806040518060400160405280601881526020017f484e3a436f6d6d6f6e2f6661696c65642d746f2d73656e6400000000000000008152509061069a576040517f08c379a0000000000000000000000000000000000000000000000000000000008152600401610691919061133c565b60405180910390fd5b507f2e39961a70a10f4d46383948095ac2752b3ee642a7c76aa827410aaff08c2e5182846040516106cc9291906113dc565b60405180910390a1505050565b60006106e6848484610ce0565b90509392505050565b60006020528060005260406000206000915090505481565b600082829050116040518060400160405280601781526020017f484e3a5661756c742f656d7074792d7061796c6f61647300000000000000000081525090610785576040517f08c379a000000000000000000000000000000000000000000000000000000000815260040161077c919061133c565b60405180910390fd5b50600080600160003373ffffffffffffffffffffffffffffffffffffffff1673ffffffffffffffffffffffffffffffffffffffff16815260200190815260200160002054905060005b84849050811015610aa257818585838181106107ed576107ec611405565b5b90506020028101906107ff9190611443565b60000135116040518060400160405280601881526020017f484e3a5661756c742f616c72656164792d636c61696d656400000000000000008152509061087b576040517f08c379a0000000000000000000000000000000000000000000000000000000008152600401610872919061133c565b60405180910390fd5b5060003386868481811061089257610891611405565b5b90506020028101906108a49190611443565b602001356040516020016108b99291906113dc565b604051602081830303815290604052805190602001206040516020016108df919061148c565b604051602081830303815290604052805190602001209050600080600088888681811061090f5761090e611405565b5b90506020028101906109219190611443565b6000013581526020019081526020016000205490506109b487878581811061094c5761094b611405565b5b905060200281019061095e9190611443565b806040019061096d91906114a7565b80806020026020016040519081016040528093929190818152602001838360200280828437600081840152601f19601f8201169050808301925050505050505082846106d9565b6040518060400160405280601d81526020017f484e3a5661756c742f696e76616c69642d6d65726b6c652d70726f6f6600000081525090610a2b576040517f08c379a0000000000000000000000000000000000000000000000000000000008152600401610a22919061133c565b60405180910390fd5b50868684818110610a3f57610a3e611405565b5b9050602002810190610a519190611443565b600001359350868684818110610a6a57610a69611405565b5b9050602002810190610a7c9190611443565b6020013585610a8b9190611539565b945050508080610a9a9061156d565b9150506107ce565b5080600160003373ffffffffffffffffffffffffffffffffffffffff1673ffffffffffffffffffffffffffffffffffffffff1681526020019081526020016000208190555060003373ffffffffffffffffffffffffffffffffffffffff1683604051610b0d906113b8565b60006040518083038185875af1925050503d8060008114610b4a576040519150601f19603f3d011682016040523d82523d6000602084013e610b4f565b606091505b50509050806040518060400160405280601881526020017f484e3a436f6d6d6f6e2f6661696c65642d746f2d73656e64000000000000000081525090610bcb576040517f08c379a0000000000000000000000000000000000000000000000000000000008152600401610bc2919061133c565b60405180910390fd5b507f92ccf450a286a957af52509bc1c9939d1a6a481783e142e41e2499f0bb66ebc6338484604051610bff939291906115b5565b60405180910390a15050505050565b7f000000000000000000000000000000000000000000000000000000000000000081565b60016020528060005260406000206000915090505481565b60007f000000000000000000000000000000000000000000000000000000000000000073ffffffffffffffffffffffffffffffffffffffff16634783c35b6040518163ffffffff1660e01b8152600401602060405180830381865afa158015610cb7573d6000803e3d6000fd5b505050506040513d601f19601f82011682018060405250810190610cdb9190611290565b905090565b600082610ced8584610cf7565b1490509392505050565b60008082905060005b8451811015610d4257610d2d82868381518110610d2057610d1f611405565b5b6020026020010151610d4d565b91508080610d3a9061156d565b915050610d00565b508091505092915050565b6000818310610d6557610d608284610d78565b610d70565b610d6f8383610d78565b5b905092915050565b600082600052816020526040600020905092915050565b6000604051905090565b600080fd5b600080fd5b6000819050919050565b610db681610da3565b8114610dc157600080fd5b50565b600081359050610dd381610dad565b92915050565b6000819050919050565b610dec81610dd9565b8114610df757600080fd5b50565b600081359050610e0981610de3565b92915050565b60008060408385031215610e2657610e25610d99565b5b6000610e3485828601610dc4565b9250506020610e4585828601610dfa565b9150509250929050565b600060208284031215610e6557610e64610d99565b5b6000610e7384828501610dc4565b91505092915050565b600080fd5b6000601f19601f8301169050919050565b7f4e487b7100000000000000000000000000000000000000000000000000000000600052604160045260246000fd5b610eca82610e81565b810181811067ffffffffffffffff82111715610ee957610ee8610e92565b5b80604052505050565b6000610efc610d8f565b9050610f088282610ec1565b919050565b600067ffffffffffffffff821115610f2857610f27610e92565b5b602082029050602081019050919050565b600080fd5b6000610f51610f4c84610f0d565b610ef2565b90508083825260208201905060208402830185811115610f7457610f73610f39565b5b835b81811015610f9d5780610f898882610dfa565b845260208401935050602081019050610f76565b5050509392505050565b600082601f830112610fbc57610fbb610e7c565b5b8135610fcc848260208601610f3e565b91505092915050565b600080600060608486031215610fee57610fed610d99565b5b600084013567ffffffffffffffff81111561100c5761100b610d9e565b5b61101886828701610fa7565b935050602061102986828701610dfa565b925050604061103a86828701610dfa565b9150509250925092565b60008115159050919050565b61105981611044565b82525050565b60006020820190506110746000830184611050565b92915050565b61108381610dd9565b82525050565b600060208201905061109e600083018461107a565b92915050565b600080fd5b60008083601f8401126110bf576110be610e7c565b5b8235905067ffffffffffffffff8111156110dc576110db6110a4565b5b6020830191508360208202830111156110f8576110f7610f39565b5b9250929050565b6000806020838503121561111657611115610d99565b5b600083013567ffffffffffffffff81111561113457611133610d9e565b5b611140858286016110a9565b92509250509250929050565b600073ffffffffffffffffffffffffffffffffffffffff82169050919050565b6000819050919050565b600061119161118c6111878461114c565b61116c565b61114c565b9050919050565b60006111a382611176565b9050919050565b60006111b582611198565b9050919050565b6111c5816111aa565b82525050565b60006020820190506111e060008301846111bc565b92915050565b60006111f18261114c565b9050919050565b611201816111e6565b811461120c57600080fd5b50565b60008135905061121e816111f8565b92915050565b60006020828403121561123a57611239610d99565b5b60006112488482850161120f565b91505092915050565b61125a81610da3565b82525050565b60006020820190506112756000830184611251565b92915050565b60008151905061128a816111f8565b92915050565b6000602082840312156112a6576112a5610d99565b5b60006112b48482850161127b565b91505092915050565b600081519050919050565b600082825260208201905092915050565b60005b838110156112f75780820151818401526020810190506112dc565b60008484015250505050565b600061130e826112bd565b61131881856112c8565b93506113288185602086016112d9565b61133181610e81565b840191505092915050565b600060208201905081810360008301526113568184611303565b905092915050565b60006040820190506113736000830185611251565b611380602083018461107a565b9392505050565b600081905092915050565b50565b60006113a2600083611387565b91506113ad82611392565b600082019050919050565b60006113c382611395565b9150819050919050565b6113d6816111e6565b82525050565b60006040820190506113f160008301856113cd565b6113fe6020830184611251565b9392505050565b7f4e487b7100000000000000000000000000000000000000000000000000000000600052603260045260246000fd5b600080fd5b600080fd5b600080fd5b60008235600160600383360303811261145f5761145e611434565b5b80830191505092915050565b6000819050919050565b61148661148182610dd9565b61146b565b82525050565b60006114988284611475565b60208201915081905092915050565b600080833560016020038436030381126114c4576114c3611434565b5b80840192508235915067ffffffffffffffff8211156114e6576114e5611439565b5b6020830192506020820236038313156115025761150161143e565b5b509250929050565b7f4e487b7100000000000000000000000000000000000000000000000000000000600052601160045260246000fd5b600061154482610da3565b915061154f83610da3565b92508282019050808211156115675761156661150a565b5b92915050565b600061157882610da3565b91507fffffffffffffffffffffffffffffffffffffffffffffffffffffffffffffffff82036115aa576115a961150a565b5b600182019050919050565b60006060820190506115ca60008301866113cd565b6115d76020830185611251565b6115e46040830184611251565b94935050505056fea2646970667358221220bcb531e3e8ae7268b0329de4fc49299260a73c20eb3f6a8f78657c61fd22ed2264736f6c63430008120033",
  "linkReferences": {},
  "deployedLinkReferences": {}
}